{
  "contractName": "Lottery",
  "abi": [
    {
      "constant": true,
      "inputs": [],
      "name": "manager",
      "outputs": [
        {
          "name": "",
          "type": "address"
        }
      ],
      "payable": false,
      "stateMutability": "view",
      "type": "function",
      "signature": "0x481c6a75"
    },
    {
      "inputs": [],
      "payable": false,
      "stateMutability": "nonpayable",
      "type": "constructor",
      "signature": "constructor"
    },
    {
      "constant": false,
      "inputs": [],
      "name": "enter",
      "outputs": [],
      "payable": true,
      "stateMutability": "payable",
      "type": "function",
      "signature": "0xe97dcb62"
    },
    {
      "constant": true,
      "inputs": [],
      "name": "random",
      "outputs": [
        {
          "name": "",
          "type": "uint256"
        }
      ],
      "payable": false,
      "stateMutability": "view",
      "type": "function",
      "signature": "0x5ec01e4d"
    },
    {
      "constant": false,
      "inputs": [],
      "name": "pickWinner",
      "outputs": [],
      "payable": false,
      "stateMutability": "nonpayable",
      "type": "function",
      "signature": "0x5d495aea"
    },
    {
      "constant": true,
      "inputs": [],
      "name": "getPlayers",
      "outputs": [
        {
          "name": "",
          "type": "address[]"
        }
      ],
      "payable": false,
      "stateMutability": "view",
      "type": "function",
      "signature": "0x8b5b9ccc"
    }
  ],
  "bytecode": "0x608060405234801561001057600080fd5b50336000806101000a81548173ffffffffffffffffffffffffffffffffffffffff021916908373ffffffffffffffffffffffffffffffffffffffff160217905550610634806100606000396000f3fe60806040526004361061006d576000357c0100000000000000000000000000000000000000000000000000000000900463ffffffff168063481c6a75146100725780635d495aea146100c95780635ec01e4d146100e05780638b5b9ccc1461010b578063e97dcb6214610177575b600080fd5b34801561007e57600080fd5b50610087610181565b604051808273ffffffffffffffffffffffffffffffffffffffff1673ffffffffffffffffffffffffffffffffffffffff16815260200191505060405180910390f35b3480156100d557600080fd5b506100de6101a6565b005b3480156100ec57600080fd5b506100f561038d565b6040518082815260200191505060405180910390f35b34801561011757600080fd5b50610120610430565b6040518080602001828103825283818151815260200191508051906020019060200280838360005b83811015610163578082015181840152602081019050610148565b505050509050019250505060405180910390f35b61017f6104be565b005b6000809054906101000a900473ffffffffffffffffffffffffffffffffffffffff1681565b6000809054906101000a900473ffffffffffffffffffffffffffffffffffffffff1673ffffffffffffffffffffffffffffffffffffffff163373ffffffffffffffffffffffffffffffffffffffff16141515610290576040517f08c379a00000000000000000000000000000000000000000000000000000000081526004018080602001828103825260318152602001807f57726f6e672063616c6c696e6721204f6e6c79206d616e616765722063616e2081526020017f63616c6c207468652066756e6374696f6e00000000000000000000000000000081525060400191505060405180910390fd5b60006001805490506102a061038d565b8115156102a957fe5b0690506001818154811015156102bb57fe5b9060005260206000200160009054906101000a900473ffffffffffffffffffffffffffffffffffffffff1673ffffffffffffffffffffffffffffffffffffffff166108fc3073ffffffffffffffffffffffffffffffffffffffff16319081150290604051600060405180830381858888f19350505050158015610342573d6000803e3d6000fd5b5060006040519080825280602002602001820160405280156103735781602001602082028038833980820191505090505b506001908051906020019061038992919061053b565b5050565b60004442600160405160200180848152602001838152602001828054801561040a57602002820191906000526020600020905b8160009054906101000a900473ffffffffffffffffffffffffffffffffffffffff1673ffffffffffffffffffffffffffffffffffffffff16815260200190600101908083116103c0575b505093505050506040516020818303038152906040528051906020012060019004905090565b606060018054806020026020016040519081016040528092919081815260200182805480156104b457602002820191906000526020600020905b8160009054906101000a900473ffffffffffffffffffffffffffffffffffffffff1673ffffffffffffffffffffffffffffffffffffffff168152602001906001019080831161046a575b5050505050905090565b662386f26fc10000341115156104d357600080fd5b60013390806001815401808255809150509060018203906000526020600020016000909192909190916101000a81548173ffffffffffffffffffffffffffffffffffffffff021916908373ffffffffffffffffffffffffffffffffffffffff16021790555050565b8280548282559060005260206000209081019282156105b4579160200282015b828111156105b35782518260006101000a81548173ffffffffffffffffffffffffffffffffffffffff021916908373ffffffffffffffffffffffffffffffffffffffff1602179055509160200191906001019061055b565b5b5090506105c191906105c5565b5090565b61060591905b8082111561060157600081816101000a81549073ffffffffffffffffffffffffffffffffffffffff0219169055506001016105cb565b5090565b9056fea165627a7a7230582023c146036b30d0c58eb89923b9cc6fe0ac9f0bb6309c985831fff892841239c60029",
  "source": "pragma solidity >=0.4.22 <0.6.0;\r\n\r\ncontract Lottery{\r\n    address public manager;\r\n    address payable[] players;\r\n    \r\n    modifier onlyManager{\r\n        require(msg.sender == manager, \"Wrong calling! Only manager can call the function\");\r\n        _;\r\n    }\r\n    \r\n    constructor() public{\r\n        manager = msg.sender;\r\n    }\r\n    \r\n    function enter() public payable{\r\n        require(msg.value > .01 ether);\r\n        \r\n        players.push(msg.sender);\r\n    }\r\n    \r\n    function random()public view returns (uint256){\r\n        return uint256(keccak256(abi.encodePacked(block.difficulty, now, players)));\r\n    }\r\n    \r\n   function pickWinner() public onlyManager{\r\n        uint256 index = random() % players.length;\r\n        players[index].transfer(address(this).balance);\r\n        players = new address payable[](0);\r\n    }\r\n    \r\n    function getPlayers() public view returns(address payable[] memory){\r\n        return players;\r\n    }\r\n}",
  "sourcePath": "C:/Users/PetkovDG/Desktop/SmartContract-Lottery-project/Lottery-project/contracts/Lottery.sol",
  "compiler": {
    "name": "solc",
    "version": "0.5.0+commit.1d4f565a.Emscripten.clang"
  },
  "schemaVersion": "3.0.6",
  "updatedAt": "2019-04-11T14:12:52.736Z",
  "devdoc": {
    "methods": {}
  },
  "userdoc": {
    "methods": {}
  }
}